{
  "address": "0xeF0b982E6ac576126140A2fa95e52925495860C1",
  "abi": [
    {
      "inputs": [
        {
          "internalType": "contract IERC20",
          "name": "_tokenContract",
          "type": "address"
        }
      ],
      "stateMutability": "nonpayable",
      "type": "constructor"
    },
    {
      "anonymous": false,
      "inputs": [
        {
          "indexed": true,
          "internalType": "address",
          "name": "previousOwner",
          "type": "address"
        },
        {
          "indexed": true,
          "internalType": "address",
          "name": "newOwner",
          "type": "address"
        }
      ],
      "name": "OwnershipTransferred",
      "type": "event"
    },
    {
      "inputs": [
        {
          "internalType": "bytes32",
          "name": "course_id",
          "type": "bytes32"
        },
        {
          "internalType": "bytes32",
          "name": "password",
          "type": "bytes32"
        }
      ],
      "name": "DeleteCourse",
      "outputs": [],
      "stateMutability": "nonpayable",
      "type": "function"
    },
    {
      "inputs": [
        {
          "internalType": "bytes32",
          "name": "course_id",
          "type": "bytes32"
        },
        {
          "internalType": "uint256",
          "name": "amount",
          "type": "uint256"
        }
      ],
      "name": "Deposit",
      "outputs": [],
      "stateMutability": "nonpayable",
      "type": "function"
    },
    {
      "inputs": [
        {
          "internalType": "address",
          "name": "to",
          "type": "address"
        },
        {
          "internalType": "uint256",
          "name": "amount",
          "type": "uint256"
        }
      ],
      "name": "Extract",
      "outputs": [],
      "stateMutability": "nonpayable",
      "type": "function"
    },
    {
      "inputs": [
        {
          "internalType": "bytes32",
          "name": "course_id",
          "type": "bytes32"
        },
        {
          "internalType": "uint256",
          "name": "password",
          "type": "uint256"
        }
      ],
      "name": "ExtractCourse",
      "outputs": [],
      "stateMutability": "nonpayable",
      "type": "function"
    },
    {
      "inputs": [
        {
          "internalType": "bytes32",
          "name": "course_id",
          "type": "bytes32"
        },
        {
          "internalType": "uint256",
          "name": "date",
          "type": "uint256"
        },
        {
          "internalType": "bytes32",
          "name": "password",
          "type": "bytes32"
        }
      ],
      "name": "NewCourse",
      "outputs": [],
      "stateMutability": "nonpayable",
      "type": "function"
    },
    {
      "inputs": [
        {
          "internalType": "bytes32",
          "name": "course_id",
          "type": "bytes32"
        },
        {
          "internalType": "uint256",
          "name": "amount",
          "type": "uint256"
        },
        {
          "internalType": "address",
          "name": "user",
          "type": "address"
        }
      ],
      "name": "Refund",
      "outputs": [],
      "stateMutability": "nonpayable",
      "type": "function"
    },
    {
      "inputs": [],
      "name": "available_balance",
      "outputs": [
        {
          "internalType": "uint256",
          "name": "",
          "type": "uint256"
        }
      ],
      "stateMutability": "view",
      "type": "function"
    },
    {
      "inputs": [],
      "name": "balance",
      "outputs": [
        {
          "internalType": "uint256",
          "name": "",
          "type": "uint256"
        }
      ],
      "stateMutability": "view",
      "type": "function"
    },
    {
      "inputs": [
        {
          "internalType": "bytes32",
          "name": "",
          "type": "bytes32"
        }
      ],
      "name": "courses",
      "outputs": [
        {
          "internalType": "uint256",
          "name": "incoming_balance",
          "type": "uint256"
        },
        {
          "internalType": "uint256",
          "name": "outgoing_balance",
          "type": "uint256"
        },
        {
          "internalType": "uint256",
          "name": "last_available",
          "type": "uint256"
        },
        {
          "internalType": "bytes32",
          "name": "key",
          "type": "bytes32"
        }
      ],
      "stateMutability": "view",
      "type": "function"
    },
    {
      "inputs": [
        {
          "internalType": "bytes32",
          "name": "course_id",
          "type": "bytes32"
        }
      ],
      "name": "getCourseIncomingBalance",
      "outputs": [
        {
          "internalType": "uint256",
          "name": "",
          "type": "uint256"
        }
      ],
      "stateMutability": "view",
      "type": "function"
    },
    {
      "inputs": [
        {
          "internalType": "bytes32",
          "name": "course_id",
          "type": "bytes32"
        }
      ],
      "name": "getCourseOutgoingBalance",
      "outputs": [
        {
          "internalType": "uint256",
          "name": "",
          "type": "uint256"
        }
      ],
      "stateMutability": "view",
      "type": "function"
    },
    {
      "inputs": [],
      "name": "owner",
      "outputs": [
        {
          "internalType": "address",
          "name": "",
          "type": "address"
        }
      ],
      "stateMutability": "view",
      "type": "function"
    },
    {
      "inputs": [],
      "name": "renounceOwnership",
      "outputs": [],
      "stateMutability": "nonpayable",
      "type": "function"
    },
    {
      "inputs": [
        {
          "internalType": "address",
          "name": "newOwner",
          "type": "address"
        }
      ],
      "name": "transferOwnership",
      "outputs": [],
      "stateMutability": "nonpayable",
      "type": "function"
    },
    {
      "inputs": [
        {
          "internalType": "bytes32",
          "name": "course_id",
          "type": "bytes32"
        },
        {
          "internalType": "uint256",
          "name": "date",
          "type": "uint256"
        }
      ],
      "name": "updateDate",
      "outputs": [],
      "stateMutability": "nonpayable",
      "type": "function"
    }
  ],
  "transactionHash": "0xbb7901b17255a94ae0b3b229e0e826ea6a46a586ab6888b677d2dd885edd2c49",
  "args": [
    "0xD92E713d051C37EbB2561803a3b5FBAbc4962431"
  ],
  "solcInputHash": "f04d0c9255877338a2833c363786e92e",
  "bytecode": "0x608060405234801561001057600080fd5b5060405161100a38038061100a83398101604081905261002f916100ad565b6100383361005d565b600480546001600160a01b0319166001600160a01b03929092169190911790556100dd565b600080546001600160a01b038381166001600160a01b0319831681178455604051919092169283917f8be0079c531659141344cd1fd0a4f28419497f9722a3daafe3b4186f6b6457e09190a35050565b6000602082840312156100bf57600080fd5b81516001600160a01b03811681146100d657600080fd5b9392505050565b610f1e806100ec6000396000f3fe608060405234801561001057600080fd5b50600436106100f55760003560e01c80639789996a11610097578063c4b8875111610066578063c4b88751146101c9578063dfec50c91461021f578063e82fdfed14610232578063f2fde38b1461024557600080fd5b80639789996a1461018757806398e783c31461019a5780639fcdf565146101ad578063b69ef8a8146101c057600080fd5b8063715018a6116100d3578063715018a61461013e5780637962a7711461014657806381f4b237146101595780638da5cb5b1461016c57600080fd5b8063092314da146100fa5780630daf74e2146101165780636908d99c1461012b575b600080fd5b61010360035481565b6040519081526020015b60405180910390f35b610129610124366004610cdb565b610258565b005b610129610139366004610d19565b610363565b61012961045d565b610129610154366004610d43565b610493565b610103610167366004610d6f565b61058b565b6000546040516001600160a01b03909116815260200161010d565b610129610195366004610cdb565b6105d0565b6101296101a8366004610cdb565b61071b565b6101296101bb366004610d88565b6108a6565b61010360025481565b6101ff6101d7366004610d6f565b6001602081905260009182526040909120805491810154600282015460039092015490919084565b60408051948552602085019390935291830152606082015260800161010d565b61012961022d366004610cdb565b610a67565b610103610240366004610d6f565b610baf565b610129610253366004610dbd565b610bf0565b6000546001600160a01b0316331461028b5760405162461bcd60e51b815260040161028290610ddf565b60405180910390fd5b6000828152600160205260409020600201546102b95760405162461bcd60e51b815260040161028290610e14565b806102f95760405162461bcd60e51b815260206004820152601060248201526f2230ba329031b0b713ba10313290181760811b6044820152606401610282565b600082815260016020819052604082206002810184905580549101805491929091610325908490610e59565b9091555050600082815260016020526040812054600380549192909161034c908490610e59565b909155505050600090815260016020526040812055565b6000546001600160a01b0316331461038d5760405162461bcd60e51b815260040161028290610ddf565b8060035410156103df5760405162461bcd60e51b815260206004820152601a60248201527f576520646f6e2774206861766520656e6f7567682066756e64730000000000006044820152606401610282565b6004805460405163a9059cbb60e01b81526001600160a01b03858116938201939093526024810184905291169063a9059cbb906044016020604051808303816000875af1158015610434573d6000803e3d6000fd5b505050506040513d601f19601f820116820180604052508101906104589190610e71565b505050565b6000546001600160a01b031633146104875760405162461bcd60e51b815260040161028290610ddf565b6104916000610c8b565b565b6000546001600160a01b031633146104bd5760405162461bcd60e51b815260040161028290610ddf565b600083815260016020526040902060020154156105155760405162461bcd60e51b815260206004820152601660248201527521b7bab939b29030b63932b0b23c9032bc34b9ba399760511b6044820152606401610282565b604080516020808201869052818301939093528151808203830181526060820180845281519185019190912060e08301845260008083526080840181815260a0850197885260c0909401918252968752600194859052929095209451855551918401919091559051600283015551600390910155565b6000818152600160205260408120600201546105b95760405162461bcd60e51b815260040161028290610e14565b506000908152600160208190526040909120015490565b6000546001600160a01b031633146105fa5760405162461bcd60e51b815260040161028290610ddf565b60408051602080820185905281830184905282518083038401815260609092018352815191810191909120600085815260019092529190206002015461067b5760405162461bcd60e51b815260206004820152601660248201527521b7bab939b2903237b2b9b713ba1032bc34b9ba399760511b6044820152606401610282565b60008381526001602052604090206003015481146106cd5760405162461bcd60e51b815260206004820152600f60248201526e2bb937b733902830b9b9bbb7b9321760891b6044820152606401610282565b50506040805160808101825260008082526020808301828152838501838152606085018481529684526001928390529490922092518355905190820155905160028201559051600390910155565b6000546001600160a01b031633146107455760405162461bcd60e51b815260040161028290610ddf565b6000828152600160205260409020600201546107735760405162461bcd60e51b815260040161028290610e14565b6000828152600160205260409020600201544290610794906228de80610e59565b1015610825576000828152600160205260409020600201546107b9906228de80610e59565b6000838152600160208190526040822060028101939093558254920180549091906107e5908490610e59565b9091555050600082815260016020526040812054600380549192909161080c908490610e59565b9091555050600082815260016020526040812055610773565b6000610832600283610ea9565b905061083f600283610ebd565b600084815260016020526040812080549294508492909190610862908490610e59565b9091555061087290508183610e59565b600260008282546108839190610e59565b92505081905550806003600082825461089c9190610e59565b9091555050505050565b6000546001600160a01b031633146108d05760405162461bcd60e51b815260040161028290610ddf565b6000838152600160205260409020600201546108fe5760405162461bcd60e51b815260040161028290610e14565b600061090b600284610ea9565b9050600061091a600285610ebd565b6000868152600160205260409020549091508111156109895760405162461bcd60e51b815260206004820152602560248201527f436f7572736520646f65736e2774206861766520656e6f75676820746f207265604482015264333ab7321760d91b6064820152608401610282565b6004805460405163a9059cbb60e01b81526001600160a01b03868116938201939093526024810187905291169063a9059cbb906044016020604051808303816000875af11580156109de573d6000803e3d6000fd5b505050506040513d601f19601f82011682018060405250810190610a029190610e71565b5060008581526001602052604081208054839290610a21908490610ed1565b90915550610a3190508282610e59565b60026000828254610a429190610ed1565b925050819055508160036000828254610a5b9190610ed1565b90915550505050505050565b604080516020808201859052818301849052825180830384018152606090920183528151918101919091206000858152600190925291902060020154610abf5760405162461bcd60e51b815260040161028290610e14565b6000838152600160205260409020600301548114610b115760405162461bcd60e51b815260206004820152600f60248201526e2bb937b733902830b9b9bbb7b9321760891b6044820152606401610282565b600480546000858152600160208190526040918290200154905163a9059cbb60e01b8152339381019390935260248301526001600160a01b03169063a9059cbb906044016020604051808303816000875af1158015610b74573d6000803e3d6000fd5b505050506040513d601f19601f82011682018060405250810190610b989190610e71565b505050600090815260016020819052604082200155565b600081815260016020526040812060020154610bdd5760405162461bcd60e51b815260040161028290610e14565b5060009081526001602052604090205490565b6000546001600160a01b03163314610c1a5760405162461bcd60e51b815260040161028290610ddf565b6001600160a01b038116610c7f5760405162461bcd60e51b815260206004820152602660248201527f4f776e61626c653a206e6577206f776e657220697320746865207a65726f206160448201526564647265737360d01b6064820152608401610282565b610c8881610c8b565b50565b600080546001600160a01b038381166001600160a01b0319831681178455604051919092169283917f8be0079c531659141344cd1fd0a4f28419497f9722a3daafe3b4186f6b6457e09190a35050565b60008060408385031215610cee57600080fd5b50508035926020909101359150565b80356001600160a01b0381168114610d1457600080fd5b919050565b60008060408385031215610d2c57600080fd5b610d3583610cfd565b946020939093013593505050565b600080600060608486031215610d5857600080fd5b505081359360208301359350604090920135919050565b600060208284031215610d8157600080fd5b5035919050565b600080600060608486031215610d9d57600080fd5b8335925060208401359150610db460408501610cfd565b90509250925092565b600060208284031215610dcf57600080fd5b610dd882610cfd565b9392505050565b6020808252818101527f4f776e61626c653a2063616c6c6572206973206e6f7420746865206f776e6572604082015260600190565b60208082526015908201527421b7bab939b2903237b2b9b713ba1032bc34b9ba1760591b604082015260600190565b634e487b7160e01b600052601160045260246000fd5b60008219821115610e6c57610e6c610e43565b500190565b600060208284031215610e8357600080fd5b81518015158114610dd857600080fd5b634e487b7160e01b600052601260045260246000fd5b600082610eb857610eb8610e93565b500690565b600082610ecc57610ecc610e93565b500490565b600082821015610ee357610ee3610e43565b50039056fea2646970667358221220cceea4597288992b59574883f4645837f193784798b0c467986aaff8dc12fa2f64736f6c634300080a0033",
  "devdoc": {
    "kind": "dev",
    "methods": {
      "owner()": {
        "details": "Returns the address of the current owner."
      },
      "renounceOwnership()": {
        "details": "Leaves the contract without owner. It will not be possible to call `onlyOwner` functions anymore. Can only be called by the current owner. NOTE: Renouncing ownership will leave the contract without an owner, thereby removing any functionality that is only available to the owner."
      },
      "transferOwnership(address)": {
        "details": "Transfers ownership of the contract to a new account (`newOwner`). Can only be called by the current owner."
      }
    },
    "version": 1
  },
  "userdoc": {
    "kind": "user",
    "methods": {},
    "version": 1
  },
  "storageLayout": {
    "storage": [
      {
        "astId": 7,
        "contract": "contracts/CoursesPayout.sol:CoursesPayout",
        "label": "_owner",
        "offset": 0,
        "slot": "0",
        "type": "t_address"
      },
      {
        "astId": 829,
        "contract": "contracts/CoursesPayout.sol:CoursesPayout",
        "label": "courses",
        "offset": 0,
        "slot": "1",
        "type": "t_mapping(t_bytes32,t_struct(Course)824_storage)"
      },
      {
        "astId": 831,
        "contract": "contracts/CoursesPayout.sol:CoursesPayout",
        "label": "balance",
        "offset": 0,
        "slot": "2",
        "type": "t_uint256"
      },
      {
        "astId": 833,
        "contract": "contracts/CoursesPayout.sol:CoursesPayout",
        "label": "available_balance",
        "offset": 0,
        "slot": "3",
        "type": "t_uint256"
      },
      {
        "astId": 836,
        "contract": "contracts/CoursesPayout.sol:CoursesPayout",
        "label": "usdt",
        "offset": 0,
        "slot": "4",
        "type": "t_contract(IERC20)728"
      }
    ],
    "types": {
      "t_address": {
        "encoding": "inplace",
        "label": "address",
        "numberOfBytes": "20"
      },
      "t_bytes32": {
        "encoding": "inplace",
        "label": "bytes32",
        "numberOfBytes": "32"
      },
      "t_contract(IERC20)728": {
        "encoding": "inplace",
        "label": "contract IERC20",
        "numberOfBytes": "20"
      },
      "t_mapping(t_bytes32,t_struct(Course)824_storage)": {
        "encoding": "mapping",
        "key": "t_bytes32",
        "label": "mapping(bytes32 => struct CoursesPayout.Course)",
        "numberOfBytes": "32",
        "value": "t_struct(Course)824_storage"
      },
      "t_struct(Course)824_storage": {
        "encoding": "inplace",
        "label": "struct CoursesPayout.Course",
        "members": [
          {
            "astId": 817,
            "contract": "contracts/CoursesPayout.sol:CoursesPayout",
            "label": "incoming_balance",
            "offset": 0,
            "slot": "0",
            "type": "t_uint256"
          },
          {
            "astId": 819,
            "contract": "contracts/CoursesPayout.sol:CoursesPayout",
            "label": "outgoing_balance",
            "offset": 0,
            "slot": "1",
            "type": "t_uint256"
          },
          {
            "astId": 821,
            "contract": "contracts/CoursesPayout.sol:CoursesPayout",
            "label": "last_available",
            "offset": 0,
            "slot": "2",
            "type": "t_uint256"
          },
          {
            "astId": 823,
            "contract": "contracts/CoursesPayout.sol:CoursesPayout",
            "label": "key",
            "offset": 0,
            "slot": "3",
            "type": "t_bytes32"
          }
        ],
        "numberOfBytes": "128"
      },
      "t_uint256": {
        "encoding": "inplace",
        "label": "uint256",
        "numberOfBytes": "32"
      }
    }
  }
}