{
  "address": "0xab8398CC6581583267CF6C622BFf9052936386b9",
  "abi": [
    {
      "anonymous": false,
      "inputs": [
        {
          "indexed": true,
          "internalType": "address",
          "name": "previousOwner",
          "type": "address"
        },
        {
          "indexed": true,
          "internalType": "address",
          "name": "newOwner",
          "type": "address"
        }
      ],
      "name": "OwnershipTransferred",
      "type": "event"
    },
    {
      "inputs": [
        {
          "internalType": "bytes32",
          "name": "course_id",
          "type": "bytes32"
        },
        {
          "internalType": "bytes32",
          "name": "password",
          "type": "bytes32"
        }
      ],
      "name": "DeleteCourse",
      "outputs": [],
      "stateMutability": "nonpayable",
      "type": "function"
    },
    {
      "inputs": [
        {
          "internalType": "bytes32",
          "name": "course_id",
          "type": "bytes32"
        },
        {
          "internalType": "uint256",
          "name": "amount",
          "type": "uint256"
        }
      ],
      "name": "Deposit",
      "outputs": [],
      "stateMutability": "nonpayable",
      "type": "function"
    },
    {
      "inputs": [
        {
          "internalType": "address",
          "name": "to",
          "type": "address"
        },
        {
          "internalType": "uint256",
          "name": "amount",
          "type": "uint256"
        }
      ],
      "name": "Extract",
      "outputs": [],
      "stateMutability": "nonpayable",
      "type": "function"
    },
    {
      "inputs": [
        {
          "internalType": "bytes32",
          "name": "course_id",
          "type": "bytes32"
        },
        {
          "internalType": "uint256",
          "name": "password",
          "type": "uint256"
        }
      ],
      "name": "ExtractCourse",
      "outputs": [],
      "stateMutability": "nonpayable",
      "type": "function"
    },
    {
      "inputs": [
        {
          "internalType": "bytes32",
          "name": "course_id",
          "type": "bytes32"
        },
        {
          "internalType": "uint256",
          "name": "date",
          "type": "uint256"
        },
        {
          "internalType": "bytes32",
          "name": "password",
          "type": "bytes32"
        }
      ],
      "name": "NewCourse",
      "outputs": [],
      "stateMutability": "nonpayable",
      "type": "function"
    },
    {
      "inputs": [
        {
          "internalType": "bytes32",
          "name": "course_id",
          "type": "bytes32"
        },
        {
          "internalType": "uint256",
          "name": "amount",
          "type": "uint256"
        },
        {
          "internalType": "address",
          "name": "user",
          "type": "address"
        }
      ],
      "name": "Refund",
      "outputs": [],
      "stateMutability": "nonpayable",
      "type": "function"
    },
    {
      "inputs": [],
      "name": "available_balance",
      "outputs": [
        {
          "internalType": "uint256",
          "name": "",
          "type": "uint256"
        }
      ],
      "stateMutability": "view",
      "type": "function"
    },
    {
      "inputs": [],
      "name": "balance",
      "outputs": [
        {
          "internalType": "uint256",
          "name": "",
          "type": "uint256"
        }
      ],
      "stateMutability": "view",
      "type": "function"
    },
    {
      "inputs": [
        {
          "internalType": "bytes32",
          "name": "",
          "type": "bytes32"
        }
      ],
      "name": "courses",
      "outputs": [
        {
          "internalType": "uint256",
          "name": "incoming_balance",
          "type": "uint256"
        },
        {
          "internalType": "uint256",
          "name": "outgoing_balance",
          "type": "uint256"
        },
        {
          "internalType": "uint256",
          "name": "last_available",
          "type": "uint256"
        },
        {
          "internalType": "bytes32",
          "name": "key",
          "type": "bytes32"
        }
      ],
      "stateMutability": "view",
      "type": "function"
    },
    {
      "inputs": [
        {
          "internalType": "bytes32",
          "name": "course_id",
          "type": "bytes32"
        }
      ],
      "name": "getCourseIncomingBalance",
      "outputs": [
        {
          "internalType": "uint256",
          "name": "",
          "type": "uint256"
        }
      ],
      "stateMutability": "view",
      "type": "function"
    },
    {
      "inputs": [
        {
          "internalType": "bytes32",
          "name": "course_id",
          "type": "bytes32"
        }
      ],
      "name": "getCourseOutgoingBalance",
      "outputs": [
        {
          "internalType": "uint256",
          "name": "",
          "type": "uint256"
        }
      ],
      "stateMutability": "view",
      "type": "function"
    },
    {
      "inputs": [],
      "name": "owner",
      "outputs": [
        {
          "internalType": "address",
          "name": "",
          "type": "address"
        }
      ],
      "stateMutability": "view",
      "type": "function"
    },
    {
      "inputs": [],
      "name": "renounceOwnership",
      "outputs": [],
      "stateMutability": "nonpayable",
      "type": "function"
    },
    {
      "inputs": [
        {
          "internalType": "address",
          "name": "newOwner",
          "type": "address"
        }
      ],
      "name": "transferOwnership",
      "outputs": [],
      "stateMutability": "nonpayable",
      "type": "function"
    },
    {
      "inputs": [
        {
          "internalType": "bytes32",
          "name": "course_id",
          "type": "bytes32"
        },
        {
          "internalType": "uint256",
          "name": "date",
          "type": "uint256"
        }
      ],
      "name": "updateDate",
      "outputs": [],
      "stateMutability": "nonpayable",
      "type": "function"
    }
  ],
  "transactionHash": "0x2cb96ebac841e777608ba82c25e59eb5484f113e9f9739c52b9b63696fe75bb7",
  "args": [],
  "solcInputHash": "da0acc34df0331c06fad4879d4a84af9",
  "bytecode": "0x608060405234801561001057600080fd5b5061001a3361001f565b61006f565b600080546001600160a01b038381166001600160a01b0319831681178455604051919092169283917f8be0079c531659141344cd1fd0a4f28419497f9722a3daafe3b4186f6b6457e09190a35050565b610f3b8061007e6000396000f3fe608060405234801561001057600080fd5b50600436106100f55760003560e01c80639789996a11610097578063c4b8875111610066578063c4b88751146101c9578063dfec50c91461021f578063e82fdfed14610232578063f2fde38b1461024557600080fd5b80639789996a1461018757806398e783c31461019a5780639fcdf565146101ad578063b69ef8a8146101c057600080fd5b8063715018a6116100d3578063715018a61461013e5780637962a7711461014657806381f4b237146101595780638da5cb5b1461016c57600080fd5b8063092314da146100fa5780630daf74e2146101165780636908d99c1461012b575b600080fd5b61010360035481565b6040519081526020015b60405180910390f35b610129610124366004610cf8565b610258565b005b610129610139366004610d36565b610363565b61012961046c565b610129610154366004610d60565b6104a2565b610103610167366004610d8c565b61059a565b6000546040516001600160a01b03909116815260200161010d565b610129610195366004610cf8565b6105df565b6101296101a8366004610cf8565b61072a565b6101296101bb366004610da5565b6108b5565b61010360025481565b6101ff6101d7366004610d8c565b6001602081905260009182526040909120805491810154600282015460039092015490919084565b60408051948552602085019390935291830152606082015260800161010d565b61012961022d366004610cf8565b610a18565b610103610240366004610d8c565b610bcc565b610129610253366004610dda565b610c0d565b6000546001600160a01b0316331461028b5760405162461bcd60e51b815260040161028290610dfc565b60405180910390fd5b6000828152600160205260409020600201546102b95760405162461bcd60e51b815260040161028290610e31565b806102f95760405162461bcd60e51b815260206004820152601060248201526f2230ba329031b0b713ba10313290181760811b6044820152606401610282565b600082815260016020819052604082206002810184905580549101805491929091610325908490610e76565b9091555050600082815260016020526040812054600380549192909161034c908490610e76565b909155505050600090815260016020526040812055565b6000546001600160a01b0316331461038d5760405162461bcd60e51b815260040161028290610dfc565b8060035410156103df5760405162461bcd60e51b815260206004820152601a60248201527f576520646f6e2774206861766520656e6f7567682066756e64730000000000006044820152606401610282565b60405163a9059cbb60e01b81526001600160a01b03831660048201526024810182905273d92e713d051c37ebb2561803a3b5fbabc496243190819063a9059cbb906044016020604051808303816000875af1158015610442573d6000803e3d6000fd5b505050506040513d601f19601f820116820180604052508101906104669190610e8e565b50505050565b6000546001600160a01b031633146104965760405162461bcd60e51b815260040161028290610dfc565b6104a06000610ca8565b565b6000546001600160a01b031633146104cc5760405162461bcd60e51b815260040161028290610dfc565b600083815260016020526040902060020154156105245760405162461bcd60e51b815260206004820152601660248201527521b7bab939b29030b63932b0b23c9032bc34b9ba399760511b6044820152606401610282565b604080516020808201869052818301939093528151808203830181526060820180845281519185019190912060e08301845260008083526080840181815260a0850197885260c0909401918252968752600194859052929095209451855551918401919091559051600283015551600390910155565b6000818152600160205260408120600201546105c85760405162461bcd60e51b815260040161028290610e31565b506000908152600160208190526040909120015490565b6000546001600160a01b031633146106095760405162461bcd60e51b815260040161028290610dfc565b60408051602080820185905281830184905282518083038401815260609092018352815191810191909120600085815260019092529190206002015461068a5760405162461bcd60e51b815260206004820152601660248201527521b7bab939b2903237b2b9b713ba1032bc34b9ba399760511b6044820152606401610282565b60008381526001602052604090206003015481146106dc5760405162461bcd60e51b815260206004820152600f60248201526e2bb937b733902830b9b9bbb7b9321760891b6044820152606401610282565b50506040805160808101825260008082526020808301828152838501838152606085018481529684526001928390529490922092518355905190820155905160028201559051600390910155565b6000546001600160a01b031633146107545760405162461bcd60e51b815260040161028290610dfc565b6000828152600160205260409020600201546107825760405162461bcd60e51b815260040161028290610e31565b60008281526001602052604090206002015442906107a3906228de80610e76565b1015610834576000828152600160205260409020600201546107c8906228de80610e76565b6000838152600160208190526040822060028101939093558254920180549091906107f4908490610e76565b9091555050600082815260016020526040812054600380549192909161081b908490610e76565b9091555050600082815260016020526040812055610782565b6000610841600283610ec6565b905061084e600283610eda565b600084815260016020526040812080549294508492909190610871908490610e76565b9091555061088190508183610e76565b600260008282546108929190610e76565b9250508190555080600360008282546108ab9190610e76565b9091555050505050565b6000546001600160a01b031633146108df5760405162461bcd60e51b815260040161028290610dfc565b60008381526001602052604090206002015461090d5760405162461bcd60e51b815260040161028290610e31565b60405163a9059cbb60e01b81526001600160a01b03821660048201526024810183905273d92e713d051c37ebb2561803a3b5fbabc496243190819063a9059cbb906044016020604051808303816000875af1158015610970573d6000803e3d6000fd5b505050506040513d601f19601f820116820180604052508101906109949190610e8e565b5060006109a2600285610ec6565b90506109af600285610eda565b6000868152600160205260408120805492965086929091906109d2908490610eee565b909155506109e290508185610e76565b600260008282546109f39190610eee565b925050819055508060036000828254610a0c9190610eee565b90915550505050505050565b604080516020808201859052818301849052825180830384018152606090920183528151918101919091206000858152600190925291902060020154610a705760405162461bcd60e51b815260040161028290610e31565b6000838152600160205260409020600301548114610ac25760405162461bcd60e51b815260206004820152600f60248201526e2bb937b733902830b9b9bbb7b9321760891b6044820152606401610282565b6000838152600160205260409020600201544210610b225760405162461bcd60e51b815260206004820152601b60248201527f546f6f206561726c7920746f2065787472616374206d6f6e65792e00000000006044820152606401610282565b6000838152600160208190526040918290200154905163a9059cbb60e01b8152336004820152602481019190915273d92e713d051c37ebb2561803a3b5fbabc496243190819063a9059cbb906044016020604051808303816000875af1158015610b90573d6000803e3d6000fd5b505050506040513d601f19601f82011682018060405250810190610bb49190610e8e565b50505060009182525060016020819052604082200155565b600081815260016020526040812060020154610bfa5760405162461bcd60e51b815260040161028290610e31565b5060009081526001602052604090205490565b6000546001600160a01b03163314610c375760405162461bcd60e51b815260040161028290610dfc565b6001600160a01b038116610c9c5760405162461bcd60e51b815260206004820152602660248201527f4f776e61626c653a206e6577206f776e657220697320746865207a65726f206160448201526564647265737360d01b6064820152608401610282565b610ca581610ca8565b50565b600080546001600160a01b038381166001600160a01b0319831681178455604051919092169283917f8be0079c531659141344cd1fd0a4f28419497f9722a3daafe3b4186f6b6457e09190a35050565b60008060408385031215610d0b57600080fd5b50508035926020909101359150565b80356001600160a01b0381168114610d3157600080fd5b919050565b60008060408385031215610d4957600080fd5b610d5283610d1a565b946020939093013593505050565b600080600060608486031215610d7557600080fd5b505081359360208301359350604090920135919050565b600060208284031215610d9e57600080fd5b5035919050565b600080600060608486031215610dba57600080fd5b8335925060208401359150610dd160408501610d1a565b90509250925092565b600060208284031215610dec57600080fd5b610df582610d1a565b9392505050565b6020808252818101527f4f776e61626c653a2063616c6c6572206973206e6f7420746865206f776e6572604082015260600190565b60208082526015908201527421b7bab939b2903237b2b9b713ba1032bc34b9ba1760591b604082015260600190565b634e487b7160e01b600052601160045260246000fd5b60008219821115610e8957610e89610e60565b500190565b600060208284031215610ea057600080fd5b81518015158114610df557600080fd5b634e487b7160e01b600052601260045260246000fd5b600082610ed557610ed5610eb0565b500690565b600082610ee957610ee9610eb0565b500490565b600082821015610f0057610f00610e60565b50039056fea264697066735822122066c055dc598242dfd92a861af23d6342bba4c1d3604328464850edaa8e084e5964736f6c634300080a0033",
  "devdoc": {
    "kind": "dev",
    "methods": {
      "owner()": {
        "details": "Returns the address of the current owner."
      },
      "renounceOwnership()": {
        "details": "Leaves the contract without owner. It will not be possible to call `onlyOwner` functions anymore. Can only be called by the current owner. NOTE: Renouncing ownership will leave the contract without an owner, thereby removing any functionality that is only available to the owner."
      },
      "transferOwnership(address)": {
        "details": "Transfers ownership of the contract to a new account (`newOwner`). Can only be called by the current owner."
      }
    },
    "version": 1
  },
  "userdoc": {
    "kind": "user",
    "methods": {},
    "version": 1
  },
  "storageLayout": {
    "storage": [
      {
        "astId": 7,
        "contract": "contracts/CoursesPayout.sol:CoursesPayout",
        "label": "_owner",
        "offset": 0,
        "slot": "0",
        "type": "t_address"
      },
      {
        "astId": 829,
        "contract": "contracts/CoursesPayout.sol:CoursesPayout",
        "label": "courses",
        "offset": 0,
        "slot": "1",
        "type": "t_mapping(t_bytes32,t_struct(Course)824_storage)"
      },
      {
        "astId": 831,
        "contract": "contracts/CoursesPayout.sol:CoursesPayout",
        "label": "balance",
        "offset": 0,
        "slot": "2",
        "type": "t_uint256"
      },
      {
        "astId": 833,
        "contract": "contracts/CoursesPayout.sol:CoursesPayout",
        "label": "available_balance",
        "offset": 0,
        "slot": "3",
        "type": "t_uint256"
      }
    ],
    "types": {
      "t_address": {
        "encoding": "inplace",
        "label": "address",
        "numberOfBytes": "20"
      },
      "t_bytes32": {
        "encoding": "inplace",
        "label": "bytes32",
        "numberOfBytes": "32"
      },
      "t_mapping(t_bytes32,t_struct(Course)824_storage)": {
        "encoding": "mapping",
        "key": "t_bytes32",
        "label": "mapping(bytes32 => struct CoursesPayout.Course)",
        "numberOfBytes": "32",
        "value": "t_struct(Course)824_storage"
      },
      "t_struct(Course)824_storage": {
        "encoding": "inplace",
        "label": "struct CoursesPayout.Course",
        "members": [
          {
            "astId": 817,
            "contract": "contracts/CoursesPayout.sol:CoursesPayout",
            "label": "incoming_balance",
            "offset": 0,
            "slot": "0",
            "type": "t_uint256"
          },
          {
            "astId": 819,
            "contract": "contracts/CoursesPayout.sol:CoursesPayout",
            "label": "outgoing_balance",
            "offset": 0,
            "slot": "1",
            "type": "t_uint256"
          },
          {
            "astId": 821,
            "contract": "contracts/CoursesPayout.sol:CoursesPayout",
            "label": "last_available",
            "offset": 0,
            "slot": "2",
            "type": "t_uint256"
          },
          {
            "astId": 823,
            "contract": "contracts/CoursesPayout.sol:CoursesPayout",
            "label": "key",
            "offset": 0,
            "slot": "3",
            "type": "t_bytes32"
          }
        ],
        "numberOfBytes": "128"
      },
      "t_uint256": {
        "encoding": "inplace",
        "label": "uint256",
        "numberOfBytes": "32"
      }
    }
  }
}